{
  "contractName": "Election",
  "abi": [
    {
      "inputs": [],
      "stateMutability": "nonpayable",
      "type": "constructor"
    },
    {
      "anonymous": false,
      "inputs": [
        {
          "indexed": true,
          "internalType": "uint256",
          "name": "candidateId",
          "type": "uint256"
        },
        {
          "indexed": false,
          "internalType": "string",
          "name": "name",
          "type": "string"
        }
      ],
      "name": "CandidateAdded",
      "type": "event"
    },
    {
      "anonymous": false,
      "inputs": [
        {
          "indexed": true,
          "internalType": "uint256",
          "name": "candidateId",
          "type": "uint256"
        },
        {
          "indexed": false,
          "internalType": "bool",
          "name": "isActive",
          "type": "bool"
        }
      ],
      "name": "CandidateStatusChanged",
      "type": "event"
    },
    {
      "anonymous": false,
      "inputs": [
        {
          "indexed": false,
          "internalType": "uint256",
          "name": "endTime",
          "type": "uint256"
        }
      ],
      "name": "ElectionEnded",
      "type": "event"
    },
    {
      "anonymous": false,
      "inputs": [
        {
          "indexed": false,
          "internalType": "uint256",
          "name": "startTime",
          "type": "uint256"
        }
      ],
      "name": "ElectionStarted",
      "type": "event"
    },
    {
      "anonymous": false,
      "inputs": [
        {
          "indexed": true,
          "internalType": "address",
          "name": "voter",
          "type": "address"
        },
        {
          "indexed": true,
          "internalType": "uint256",
          "name": "candidateId",
          "type": "uint256"
        },
        {
          "indexed": false,
          "internalType": "uint256",
          "name": "timestamp",
          "type": "uint256"
        }
      ],
      "name": "Voted",
      "type": "event"
    },
    {
      "inputs": [
        {
          "internalType": "uint256",
          "name": "",
          "type": "uint256"
        }
      ],
      "name": "candidates",
      "outputs": [
        {
          "internalType": "uint256",
          "name": "id",
          "type": "uint256"
        },
        {
          "internalType": "string",
          "name": "name",
          "type": "string"
        },
        {
          "internalType": "uint256",
          "name": "voteCount",
          "type": "uint256"
        },
        {
          "internalType": "string",
          "name": "description",
          "type": "string"
        },
        {
          "internalType": "bool",
          "name": "isActive",
          "type": "bool"
        }
      ],
      "stateMutability": "view",
      "type": "function",
      "constant": true
    },
    {
      "inputs": [],
      "name": "candidatesCount",
      "outputs": [
        {
          "internalType": "uint256",
          "name": "",
          "type": "uint256"
        }
      ],
      "stateMutability": "view",
      "type": "function",
      "constant": true
    },
    {
      "inputs": [],
      "name": "electionActive",
      "outputs": [
        {
          "internalType": "bool",
          "name": "",
          "type": "bool"
        }
      ],
      "stateMutability": "view",
      "type": "function",
      "constant": true
    },
    {
      "inputs": [],
      "name": "electionDescription",
      "outputs": [
        {
          "internalType": "string",
          "name": "",
          "type": "string"
        }
      ],
      "stateMutability": "view",
      "type": "function",
      "constant": true
    },
    {
      "inputs": [],
      "name": "electionName",
      "outputs": [
        {
          "internalType": "string",
          "name": "",
          "type": "string"
        }
      ],
      "stateMutability": "view",
      "type": "function",
      "constant": true
    },
    {
      "inputs": [],
      "name": "owner",
      "outputs": [
        {
          "internalType": "address",
          "name": "",
          "type": "address"
        }
      ],
      "stateMutability": "view",
      "type": "function",
      "constant": true
    },
    {
      "inputs": [],
      "name": "totalVotes",
      "outputs": [
        {
          "internalType": "uint256",
          "name": "",
          "type": "uint256"
        }
      ],
      "stateMutability": "view",
      "type": "function",
      "constant": true
    },
    {
      "inputs": [
        {
          "internalType": "address",
          "name": "",
          "type": "address"
        }
      ],
      "name": "voters",
      "outputs": [
        {
          "internalType": "bool",
          "name": "hasVoted",
          "type": "bool"
        },
        {
          "internalType": "uint256",
          "name": "votedFor",
          "type": "uint256"
        },
        {
          "internalType": "uint256",
          "name": "timestamp",
          "type": "uint256"
        }
      ],
      "stateMutability": "view",
      "type": "function",
      "constant": true
    },
    {
      "inputs": [],
      "name": "votingEndTime",
      "outputs": [
        {
          "internalType": "uint256",
          "name": "",
          "type": "uint256"
        }
      ],
      "stateMutability": "view",
      "type": "function",
      "constant": true
    },
    {
      "inputs": [],
      "name": "votingStartTime",
      "outputs": [
        {
          "internalType": "uint256",
          "name": "",
          "type": "uint256"
        }
      ],
      "stateMutability": "view",
      "type": "function",
      "constant": true
    },
    {
      "inputs": [
        {
          "internalType": "string",
          "name": "_name",
          "type": "string"
        },
        {
          "internalType": "string",
          "name": "_description",
          "type": "string"
        }
      ],
      "name": "addCandidate",
      "outputs": [],
      "stateMutability": "nonpayable",
      "type": "function"
    },
    {
      "inputs": [
        {
          "internalType": "uint256",
          "name": "_candidateId",
          "type": "uint256"
        }
      ],
      "name": "toggleCandidateStatus",
      "outputs": [],
      "stateMutability": "nonpayable",
      "type": "function"
    },
    {
      "inputs": [
        {
          "internalType": "uint256",
          "name": "_candidateId",
          "type": "uint256"
        }
      ],
      "name": "vote",
      "outputs": [],
      "stateMutability": "nonpayable",
      "type": "function"
    },
    {
      "inputs": [
        {
          "internalType": "uint256",
          "name": "_candidateId",
          "type": "uint256"
        }
      ],
      "name": "getCandidate",
      "outputs": [
        {
          "internalType": "uint256",
          "name": "id",
          "type": "uint256"
        },
        {
          "internalType": "string",
          "name": "name",
          "type": "string"
        },
        {
          "internalType": "uint256",
          "name": "voteCount",
          "type": "uint256"
        },
        {
          "internalType": "string",
          "name": "description",
          "type": "string"
        },
        {
          "internalType": "bool",
          "name": "isActive",
          "type": "bool"
        }
      ],
      "stateMutability": "view",
      "type": "function",
      "constant": true
    },
    {
      "inputs": [],
      "name": "getAllCandidates",
      "outputs": [
        {
          "internalType": "uint256[]",
          "name": "ids",
          "type": "uint256[]"
        },
        {
          "internalType": "string[]",
          "name": "names",
          "type": "string[]"
        },
        {
          "internalType": "uint256[]",
          "name": "voteCounts",
          "type": "uint256[]"
        },
        {
          "internalType": "string[]",
          "name": "descriptions",
          "type": "string[]"
        },
        {
          "internalType": "bool[]",
          "name": "activeStatus",
          "type": "bool[]"
        }
      ],
      "stateMutability": "view",
      "type": "function",
      "constant": true
    },
    {
      "inputs": [],
      "name": "getElectionInfo",
      "outputs": [
        {
          "internalType": "string",
          "name": "name",
          "type": "string"
        },
        {
          "internalType": "string",
          "name": "description",
          "type": "string"
        },
        {
          "internalType": "uint256",
          "name": "startTime",
          "type": "uint256"
        },
        {
          "internalType": "uint256",
          "name": "endTime",
          "type": "uint256"
        },
        {
          "internalType": "bool",
          "name": "active",
          "type": "bool"
        },
        {
          "internalType": "uint256",
          "name": "totalVotesCast",
          "type": "uint256"
        }
      ],
      "stateMutability": "view",
      "type": "function",
      "constant": true
    },
    {
      "inputs": [],
      "name": "getRemainingTime",
      "outputs": [
        {
          "internalType": "uint256",
          "name": "",
          "type": "uint256"
        }
      ],
      "stateMutability": "view",
      "type": "function",
      "constant": true
    },
    {
      "inputs": [
        {
          "internalType": "address",
          "name": "_voter",
          "type": "address"
        }
      ],
      "name": "getVoterInfo",
      "outputs": [
        {
          "internalType": "bool",
          "name": "hasVoted",
          "type": "bool"
        },
        {
          "internalType": "uint256",
          "name": "votedFor",
          "type": "uint256"
        },
        {
          "internalType": "uint256",
          "name": "timestamp",
          "type": "uint256"
        }
      ],
      "stateMutability": "view",
      "type": "function",
      "constant": true
    },
    {
      "inputs": [],
      "name": "endElection",
      "outputs": [],
      "stateMutability": "nonpayable",
      "type": "function"
    },
    {
      "inputs": [
        {
          "internalType": "uint256",
          "name": "_additionalHours",
          "type": "uint256"
        }
      ],
      "name": "extendElection",
      "outputs": [],
      "stateMutability": "nonpayable",
      "type": "function"
    },
    {
      "inputs": [],
      "name": "getWinner",
      "outputs": [
        {
          "internalType": "uint256",
          "name": "winnerId",
          "type": "uint256"
        },
        {
          "internalType": "string",
          "name": "winnerName",
          "type": "string"
        },
        {
          "internalType": "uint256",
          "name": "winnerVotes",
          "type": "uint256"
        }
      ],
      "stateMutability": "view",
      "type": "function",
      "constant": true
    },
    {
      "inputs": [],
      "name": "pauseElection",
      "outputs": [],
      "stateMutability": "nonpayable",
      "type": "function"
    },
    {
      "inputs": [],
      "name": "resumeElection",
      "outputs": [],
      "stateMutability": "nonpayable",
      "type": "function"
    }
  ],
  "bytecode": "0x60806040523480156200001157600080fd5b5060008054600160a060020a0319163317905560408051808201909152601581527f47656e6572616c20456c656374696f6e20323032350000000000000000000000602082015260019062000067908262000549565b506040518060600160405280602a81526020016200232c602a913960029062000091908262000549565b506005805460ff19166001179055426003819055620000b490620151806200064b565b6004819055506200011d6040518060400160405280600d81526020017f416c696365204a6f686e736f6e000000000000000000000000000000000000008152506040518060600160405280602d8152602001620022ff602d9139640100000000620001e9810204565b620001806040518060400160405280600981526020017f426f6220536d69746800000000000000000000000000000000000000000000008152506040518060600160405280603081526020016200235660309139640100000000620001e9810204565b620001e36040518060400160405280600b81526020017f4361726f6c2044617669730000000000000000000000000000000000000000008152506040518060600160405280602c8152602001620022d3602c9139640100000000620001e9810204565b620006d3565b600054600160a060020a0316331462000289576040517f08c379a000000000000000000000000000000000000000000000000000000000815260206004820152602260248201527f4f6e6c79206f776e65722063616e20706572666f726d2074686973206163746960448201527f6f6e00000000000000000000000000000000000000000000000000000000000060648201526084015b60405180910390fd5b6000825111620002f6576040517f08c379a000000000000000000000000000000000000000000000000000000000815260206004820152601e60248201527f43616e646964617465206e616d652063616e6e6f7420626520656d7074790000604482015260640162000280565b600081511162000389576040517f08c379a000000000000000000000000000000000000000000000000000000000815260206004820152602560248201527f43616e646964617465206465736372697074696f6e2063616e6e6f742062652060448201527f656d707479000000000000000000000000000000000000000000000000000000606482015260840162000280565b600880549060006200039b8362000667565b90915550506040805160a0810182526008548082526020808301868152600084860181905260608501879052600160808601819052938152600790925293902082518155925191929190820190620003f4908262000549565b50604082015160028201556060820151600382019062000415908262000549565b50608091909101516004909101805460ff19169115159190911790556008546040517fe83b2a43e7e82d975c8a0a6d2f045153c869e111136a34d1889ab7b598e396a3906200046690859062000683565b60405180910390a25050565b7f4e487b7100000000000000000000000000000000000000000000000000000000600052604160045260246000fd5b600281046001821680620004b657607f821691505b602082108103620004f0577f4e487b7100000000000000000000000000000000000000000000000000000000600052602260045260246000fd5b50919050565b601f82111562000544576000818152602081206020601f860104810160208610156200051f5750805b6020601f860104820191505b8181101562000540578281556001016200052b565b5050505b505050565b815167ffffffffffffffff81111562000566576200056662000472565b6200057e81620005778454620004a1565b84620004f6565b602080601f831160018114620005ba57600084156200059d5750858301515b60028086026008870290910a600019041982161786555062000540565b600085815260208120601f198616915b82811015620005eb57888601518255948401946001909101908401620005ca565b50858210156200060c57878501516008601f88160260020a60001904191681555b5050505050600202600101905550565b7f4e487b7100000000000000000000000000000000000000000000000000000000600052601160045260246000fd5b808201808211156200066157620006616200061c565b92915050565b6000600182016200067c576200067c6200061c565b5060010190565b600060208083528351808285015260005b81811015620006b25785810183015185820160400152820162000694565b506000604082860101526040601f19601f8301168501019250505092915050565b611bf080620006e36000396000f3fe608060405234801561001057600080fd5b506004361061016a576000357c0100000000000000000000000000000000000000000000000000000000900480637ed628bb116100e0578063a3ec138d11610099578063a3ec138d14610330578063d256d78d14610363578063e6eea09b14610376578063e852a14b1461037e578063efb98bcf14610386578063f5c05c3c1461038e57600080fd5b80637ed628bb1461023b57806385e8e7a71461025857806386852dca146102605780638da5cb5b1461027a5780638e7ea5b2146102a55780639ed1f255146102bc57600080fd5b80632d35a8a2116101325780632d35a8a2146101c55780632e6997fe146101ce5780633477ee2e146101e757806335b8e8201461020b57806349a2b6031461021e57806359f784681461023357600080fd5b80630121b93f1461016f5780630d15fd77146101845780631ea736e0146101a05780632019a608146101a957806326541b56146101b2575b600080fd5b61018261017d3660046115b9565b6103a1565b005b61018d60095481565b6040519081526020015b60405180910390f35b61018d60045481565b61018d60035481565b6101826101c0366004611678565b610654565b61018d60085481565b6101d6610830565b6040516101979594939291906117b4565b6101fa6101f53660046115b9565b610c22565b604051610197959493929190611849565b6101fa6102193660046115b9565b610d64565b610226610f2f565b604051610197919061188f565b610182610fbd565b6005546102489060ff1681565b6040519015158152602001610197565b610226611029565b610268611036565b604051610197969594939291906118a9565b60005461028d90600160a060020a031681565b604051600160a060020a039091168152602001610197565b6102ad611188565b604051610197939291906118f4565b6103136102ca36600461191d565b600160a060020a03166000908152600660209081526040918290208251606081018452815460ff1615158082526001830154938201849052600290920154930183905292909190565b604080519315158452602084019290925290820152606001610197565b61031361033e36600461191d565b60066020526000908152604090208054600182015460029092015460ff909116919083565b6101826103713660046115b9565b61135c565b610182611403565b61018261143c565b61018d611478565b61018261039c3660046115b9565b61149c565b60055460ff166103fb5760405160e560020a62461bcd02815260206004820152601660248201527f456c656374696f6e206973206e6f74206163746976650000000000000000000060448201526064015b60405180910390fd5b6003544210156104505760405160e560020a62461bcd02815260206004820152601a60248201527f566f74696e6720686173206e6f7420737461727465642079657400000000000060448201526064016103f2565b6004544211156104a55760405160e560020a62461bcd02815260206004820152601060248201527f566f74696e672068617320656e6465640000000000000000000000000000000060448201526064016103f2565b806000811180156104b857506008548111155b6104d75760405160e560020a62461bcd0281526004016103f290611946565b60008181526007602052604090206004015460ff1661053b5760405160e560020a62461bcd02815260206004820152601760248201527f43616e646964617465206973206e6f742061637469766500000000000000000060448201526064016103f2565b3360009081526006602052604090205460ff161561059e5760405160e560020a62461bcd02815260206004820152601660248201527f596f75206861766520616c726561647920766f7465640000000000000000000060448201526064016103f2565b604080516060810182526001808252602080830186815242848601908152336000908152600684528681209551865460ff1916901515178655915193850193909355915160029384015585825260079052918220018054916105ff83611996565b90915550506009805490600061061483611996565b9091555050604051428152829033907fea66f58e474bc09f580000e81f31b334d171db387d0c6098ba47bd897741679b9060200160405180910390a35050565b600054600160a060020a031633146106815760405160e560020a62461bcd0281526004016103f2906119af565b60008251116106d55760405160e560020a62461bcd02815260206004820152601e60248201527f43616e646964617465206e616d652063616e6e6f7420626520656d707479000060448201526064016103f2565b600081511161074f5760405160e560020a62461bcd02815260206004820152602560248201527f43616e646964617465206465736372697074696f6e2063616e6e6f742062652060448201527f656d70747900000000000000000000000000000000000000000000000000000060648201526084016103f2565b6008805490600061075f83611996565b90915550506040805160a08101825260085480825260208083018681526000848601819052606085018790526001608086018190529381526007909252939020825181559251919291908201906107b69082611a98565b5060408201516002820155606082015160038201906107d59082611a98565b50608091909101516004909101805460ff19169115159190911790556008546040517fe83b2a43e7e82d975c8a0a6d2f045153c869e111136a34d1889ab7b598e396a39061082490859061188f565b60405180910390a25050565b606080606080606060085467ffffffffffffffff811115610853576108536115d2565b60405190808252806020026020018201604052801561087c578160200160208202803683370190505b50945060085467ffffffffffffffff81111561089a5761089a6115d2565b6040519080825280602002602001820160405280156108cd57816020015b60608152602001906001900390816108b85790505b50935060085467ffffffffffffffff8111156108eb576108eb6115d2565b604051908082528060200260200182016040528015610914578160200160208202803683370190505b50925060085467ffffffffffffffff811115610932576109326115d2565b60405190808252806020026020018201604052801561096557816020015b60608152602001906001900390816109505790505b50915060085467ffffffffffffffff811115610983576109836115d2565b6040519080825280602002602001820160405280156109ac578160200160208202803683370190505b50905060015b6008548111610c1a57600081815260076020526040902054866109d6600184611b5e565b815181106109e6576109e6611b77565b602002602001018181525050600760008281526020019081526020016000206001018054610a1390611a0c565b80601f0160208091040260200160405190810160405280929190818152602001828054610a3f90611a0c565b8015610a8c5780601f10610a6157610100808354040283529160200191610a8c565b820191906000526020600020905b815481529060010190602001808311610a6f57829003601f168201915b505050505085600183610a9f9190611b5e565b81518110610aaf57610aaf611b77565b6020026020010181905250600760008281526020019081526020016000206002015484600183610adf9190611b5e565b81518110610aef57610aef611b77565b602002602001018181525050600760008281526020019081526020016000206003018054610b1c90611a0c565b80601f0160208091040260200160405190810160405280929190818152602001828054610b4890611a0c565b8015610b955780601f10610b6a57610100808354040283529160200191610b95565b820191906000526020600020905b815481529060010190602001808311610b7857829003601f168201915b505050505083600183610ba89190611b5e565b81518110610bb857610bb8611b77565b60209081029190910181019190915260008281526007909152604090206004015460ff1682610be8600184611b5e565b81518110610bf857610bf8611b77565b9115156020928302919091019091015280610c1281611996565b9150506109b2565b509091929394565b60076020526000908152604090208054600182018054919291610c4490611a0c565b80601f0160208091040260200160405190810160405280929190818152602001828054610c7090611a0c565b8015610cbd5780601f10610c9257610100808354040283529160200191610cbd565b820191906000526020600020905b815481529060010190602001808311610ca057829003601f168201915b505050505090806002015490806003018054610cd890611a0c565b80601f0160208091040260200160405190810160405280929190818152602001828054610d0490611a0c565b8015610d515780601f10610d2657610100808354040283529160200191610d51565b820191906000526020600020905b815481529060010190602001808311610d3457829003601f168201915b5050506004909301549192505060ff1685565b600060606000606060008086118015610d7f57506008548611155b610d9e5760405160e560020a62461bcd0281526004016103f290611946565b6000600760008881526020019081526020016000206040518060a001604052908160008201548152602001600182018054610dd890611a0c565b80601f0160208091040260200160405190810160405280929190818152602001828054610e0490611a0c565b8015610e515780601f10610e2657610100808354040283529160200191610e51565b820191906000526020600020905b815481529060010190602001808311610e3457829003601f168201915b5050505050815260200160028201548152602001600382018054610e7490611a0c565b80601f0160208091040260200160405190810160405280929190818152602001828054610ea090611a0c565b8015610eed5780601f10610ec257610100808354040283529160200191610eed565b820191906000526020600020905b815481529060010190602001808311610ed057829003601f168201915b50505091835250506004919091015460ff16151560209182015281519082015160408301516060840151608090940151929b919a509850919650945092505050565b60028054610f3c90611a0c565b80601f0160208091040260200160405190810160405280929190818152602001828054610f6890611a0c565b8015610fb55780601f10610f8a57610100808354040283529160200191610fb5565b820191906000526020600020905b815481529060010190602001808311610f9857829003601f168201915b505050505081565b600054600160a060020a03163314610fea5760405160e560020a62461bcd0281526004016103f2906119af565b6005805460ff191690556040514281527f562cd572b2ba3b666cd989fc4ca98419ec81e75f04528df9d9d76fdb7807ee719060200160405180910390a1565b60018054610f3c90611a0c565b60608060008060008060016002600354600454600560009054906101000a900460ff1660095485805461106890611a0c565b80601f016020809104026020016040519081016040528092919081815260200182805461109490611a0c565b80156110e15780601f106110b6576101008083540402835291602001916110e1565b820191906000526020600020905b8154815290600101906020018083116110c457829003601f168201915b505050505095508480546110f490611a0c565b80601f016020809104026020016040519081016040528092919081815260200182805461112090611a0c565b801561116d5780601f106111425761010080835404028352916020019161116d565b820191906000526020600020905b81548152906001019060200180831161115057829003601f168201915b50505050509450955095509550955095509550909192939495565b600554600090606090829060ff1615806111a3575060045442115b6111f25760405160e560020a62461bcd02815260206004820152601860248201527f456c656374696f6e206973207374696c6c20616374697665000000000000000060448201526064016103f2565b60008060015b60085481116112615760008181526007602052604090206002015483108015611232575060008181526007602052604090206004015460ff165b1561124f5760008181526007602052604090206002015492509050805b8061125981611996565b9150506111f8565b5080156113195780600760008381526020019081526020016000206001018381805461128c90611a0c565b80601f01602080910402602001604051908101604052809291908181526020018280546112b890611a0c565b80156113055780601f106112da57610100808354040283529160200191611305565b820191906000526020600020905b8154815290600101906020018083116112e857829003601f168201915b505050505091509450945094505050909192565b505060408051808201909152600981527f4e6f2077696e6e6572000000000000000000000000000000000000000000000060208201526000949093508492509050565b600054600160a060020a031633146113895760405160e560020a62461bcd0281526004016103f2906119af565b60055460ff166113de5760405160e560020a62461bcd02815260206004820152601660248201527f456c656374696f6e206973206e6f74206163746976650000000000000000000060448201526064016103f2565b6113ea81610e10611b90565b600460008282546113fb9190611ba7565b909155505050565b600054600160a060020a031633146114305760405160e560020a62461bcd0281526004016103f2906119af565b6005805460ff19169055565b600054600160a060020a031633146114695760405160e560020a62461bcd0281526004016103f2906119af565b6005805460ff19166001179055565b600060045442106114895750600090565b426004546114979190611b5e565b905090565b600054600160a060020a031633146114c95760405160e560020a62461bcd0281526004016103f2906119af565b806000811180156114dc57506008548111155b6114fb5760405160e560020a62461bcd0281526004016103f290611946565b60008181526007602052604090206004015460ff1661155f5760405160e560020a62461bcd02815260206004820152601760248201527f43616e646964617465206973206e6f742061637469766500000000000000000060448201526064016103f2565b600082815260076020908152604091829020600401805460ff8082161560ff199092168217909255925192161515825283917f07a9fd7fc1368910c1b62e58319c10b4ba034e9e4d58aa2ef36e9283fc2c5f979101610824565b6000602082840312156115cb57600080fd5b5035919050565b60e060020a634e487b7102600052604160045260246000fd5b600082601f8301126115fc57600080fd5b813567ffffffffffffffff80821115611617576116176115d2565b604051601f8301601f19908116603f0116810190828211818310171561163f5761163f6115d2565b8160405283815286602085880101111561165857600080fd5b836020870160208301376000602085830101528094505050505092915050565b6000806040838503121561168b57600080fd5b823567ffffffffffffffff808211156116a357600080fd5b6116af868387016115eb565b935060208501359150808211156116c557600080fd5b506116d2858286016115eb565b9150509250929050565b600081518084526020808501945080840160005b8381101561170c578151875295820195908201906001016116f0565b509495945050505050565b6000815180845260005b8181101561173d57602081850181015186830182015201611721565b506000602082860101526020601f19601f83011685010191505092915050565b6000828251808552602080860195508081830284010181860160005b848110156117a757601f19868403018952611795838351611717565b98840198925090830190600101611779565b5090979650505050505050565b60a0815260006117c760a08301886116dc565b6020838203818501526117da828961175d565b915083820360408501526117ee82886116dc565b91508382036060850152611802828761175d565b8481036080860152855180825282870193509082019060005b8181101561183957845115158352938301939183019160010161181b565b50909a9950505050505050505050565b85815260a06020820152600061186260a0830187611717565b856040840152828103606084015261187a8186611717565b91505082151560808301529695505050505050565b6020815260006118a26020830184611717565b9392505050565b60c0815260006118bc60c0830189611717565b82810360208401526118ce8189611717565b604084019790975250506060810193909352901515608083015260a09091015292915050565b83815260606020820152600061190d6060830185611717565b9050826040830152949350505050565b60006020828403121561192f57600080fd5b8135600160a060020a03811681146118a257600080fd5b60208082526014908201527f496e76616c69642063616e646964617465206964000000000000000000000000604082015260600190565b60e060020a634e487b7102600052601160045260246000fd5b6000600182016119a8576119a861197d565b5060010190565b60208082526022908201527f4f6e6c79206f776e65722063616e20706572666f726d2074686973206163746960408201527f6f6e000000000000000000000000000000000000000000000000000000000000606082015260800190565b600281046001821680611a2057607f821691505b602082108103611a435760e060020a634e487b7102600052602260045260246000fd5b50919050565b601f821115611a93576000818152602081206020601f86010481016020861015611a705750805b6020601f860104820191505b81811015611a8f57828155600101611a7c565b5050505b505050565b815167ffffffffffffffff811115611ab257611ab26115d2565b611ac681611ac08454611a0c565b84611a49565b602080601f831160018114611aff5760008415611ae35750858301515b60028086026008870290910a6000190419821617865550611a8f565b600085815260208120601f198616915b82811015611b2e57888601518255948401946001909101908401611b0f565b5085821015611b4e57878501516008601f88160260020a60001904191681555b5050505050600202600101905550565b81810381811115611b7157611b7161197d565b92915050565b60e060020a634e487b7102600052603260045260246000fd5b8082028115828204841417611b7157611b7161197d565b80820180821115611b7157611b7161197d56fea2646970667358221220971761cd5c8bdbdd3ca4275fe3c1ed0b06771b6707bfae5eb59302b64c5fe68c64736f6c63430008150033436f6d6d756e697479206f7267616e697a65722070726f6d6f74696e6720736f6369616c206a757374696365457870657269656e636564206c656164657220666f6375736564206f6e2065636f6e6f6d69632067726f77746844656d6f63726174696320766f74696e6720666f72206c65616465727368697020706f736974696f6e73456e7669726f6e6d656e74616c206164766f6361746520776974682070726f677265737369766520706f6c6963696573",
  "immutableReferences": {},
  "source": "// SPDX-License-Identifier: MIT\r\npragma solidity >=0.5.0 <0.9.0;\r\n\r\ncontract Election {\r\n    struct Candidate {\r\n        uint id;\r\n        string name;\r\n        uint voteCount;\r\n        string description;\r\n        bool isActive;\r\n    }\r\n\r\n    struct Voter {\r\n        bool hasVoted;\r\n        uint votedFor;\r\n        uint timestamp;\r\n    }\r\n\r\n    address public owner;\r\n    string public electionName;\r\n    string public electionDescription;\r\n    uint public votingStartTime;\r\n    uint public votingEndTime;\r\n    bool public electionActive;\r\n    \r\n    mapping(address => Voter) public voters;\r\n    mapping(uint => Candidate) public candidates;\r\n    uint public candidatesCount;\r\n    uint public totalVotes;\r\n\r\n    // Events\r\n    event Voted(address indexed voter, uint indexed candidateId, uint timestamp);\r\n    event CandidateAdded(uint indexed candidateId, string name);\r\n    event ElectionStarted(uint startTime);\r\n    event ElectionEnded(uint endTime);\r\n    event CandidateStatusChanged(uint indexed candidateId, bool isActive);\r\n\r\n    // Modifiers\r\n    modifier onlyOwner() {\r\n        require(msg.sender == owner, \"Only owner can perform this action\");\r\n        _;\r\n    }\r\n\r\n    modifier electionIsActive() {\r\n        require(electionActive, \"Election is not active\");\r\n        require(block.timestamp >= votingStartTime, \"Voting has not started yet\");\r\n        require(block.timestamp <= votingEndTime, \"Voting has ended\");\r\n        _;\r\n    }\r\n\r\n    modifier validCandidate(uint _candidateId) {\r\n        require(_candidateId > 0 && _candidateId <= candidatesCount, \"Invalid candidate id\");\r\n        require(candidates[_candidateId].isActive, \"Candidate is not active\");\r\n        _;\r\n    }\r\n\r\n    constructor() {\r\n        owner = msg.sender;\r\n        electionName = \"General Election 2025\";\r\n        electionDescription = \"Democratic voting for leadership positions\";\r\n        electionActive = true;\r\n        \r\n        // Set voting period (24 hours from deployment)\r\n        votingStartTime = block.timestamp;\r\n        votingEndTime = block.timestamp + 24 hours;\r\n\r\n        // Initialize with default candidates\r\n        addCandidate(\"Alice Johnson\", \"Experienced leader focused on economic growth\");\r\n        addCandidate(\"Bob Smith\", \"Environmental advocate with progressive policies\");\r\n        addCandidate(\"Carol Davis\", \"Community organizer promoting social justice\");\r\n    }\r\n\r\n    function addCandidate(string memory _name, string memory _description) public onlyOwner {\r\n        require(bytes(_name).length > 0, \"Candidate name cannot be empty\");\r\n        require(bytes(_description).length > 0, \"Candidate description cannot be empty\");\r\n        \r\n        candidatesCount++;\r\n        candidates[candidatesCount] = Candidate(\r\n            candidatesCount,\r\n            _name,\r\n            0,\r\n            _description,\r\n            true\r\n        );\r\n        \r\n        emit CandidateAdded(candidatesCount, _name);\r\n    }\r\n\r\n    function toggleCandidateStatus(uint _candidateId) public onlyOwner validCandidate(_candidateId) {\r\n        candidates[_candidateId].isActive = !candidates[_candidateId].isActive;\r\n        emit CandidateStatusChanged(_candidateId, candidates[_candidateId].isActive);\r\n    }\r\n\r\n    function vote(uint _candidateId) public electionIsActive validCandidate(_candidateId) {\r\n        require(!voters[msg.sender].hasVoted, \"You have already voted\");\r\n        \r\n        // Record the vote\r\n        voters[msg.sender] = Voter({\r\n            hasVoted: true,\r\n            votedFor: _candidateId,\r\n            timestamp: block.timestamp\r\n        });\r\n\r\n        // Update candidate vote count\r\n        candidates[_candidateId].voteCount++;\r\n        totalVotes++;\r\n\r\n        emit Voted(msg.sender, _candidateId, block.timestamp);\r\n    }\r\n\r\n    function getCandidate(uint _candidateId) public view returns (\r\n        uint id,\r\n        string memory name,\r\n        uint voteCount,\r\n        string memory description,\r\n        bool isActive\r\n    ) {\r\n        require(_candidateId > 0 && _candidateId <= candidatesCount, \"Invalid candidate id\");\r\n        Candidate memory candidate = candidates[_candidateId];\r\n        return (\r\n            candidate.id,\r\n            candidate.name,\r\n            candidate.voteCount,\r\n            candidate.description,\r\n            candidate.isActive\r\n        );\r\n    }\r\n\r\n    function getAllCandidates() public view returns (\r\n        uint[] memory ids,\r\n        string[] memory names,\r\n        uint[] memory voteCounts,\r\n        string[] memory descriptions,\r\n        bool[] memory activeStatus\r\n    ) {\r\n        ids = new uint[](candidatesCount);\r\n        names = new string[](candidatesCount);\r\n        voteCounts = new uint[](candidatesCount);\r\n        descriptions = new string[](candidatesCount);\r\n        activeStatus = new bool[](candidatesCount);\r\n\r\n        for (uint i = 1; i <= candidatesCount; i++) {\r\n            ids[i-1] = candidates[i].id;\r\n            names[i-1] = candidates[i].name;\r\n            voteCounts[i-1] = candidates[i].voteCount;\r\n            descriptions[i-1] = candidates[i].description;\r\n            activeStatus[i-1] = candidates[i].isActive;\r\n        }\r\n    }\r\n\r\n    function getElectionInfo() public view returns (\r\n        string memory name,\r\n        string memory description,\r\n        uint startTime,\r\n        uint endTime,\r\n        bool active,\r\n        uint totalVotesCast\r\n    ) {\r\n        return (\r\n            electionName,\r\n            electionDescription,\r\n            votingStartTime,\r\n            votingEndTime,\r\n            electionActive,\r\n            totalVotes\r\n        );\r\n    }\r\n\r\n    function getRemainingTime() public view returns (uint) {\r\n        if (block.timestamp >= votingEndTime) {\r\n            return 0;\r\n        }\r\n        return votingEndTime - block.timestamp;\r\n    }\r\n\r\n    function getVoterInfo(address _voter) public view returns (\r\n        bool hasVoted,\r\n        uint votedFor,\r\n        uint timestamp\r\n    ) {\r\n        Voter memory voter = voters[_voter];\r\n        return (voter.hasVoted, voter.votedFor, voter.timestamp);\r\n    }\r\n\r\n    function endElection() public onlyOwner {\r\n        electionActive = false;\r\n        emit ElectionEnded(block.timestamp);\r\n    }\r\n\r\n    function extendElection(uint _additionalHours) public onlyOwner {\r\n        require(electionActive, \"Election is not active\");\r\n        votingEndTime += _additionalHours * 1 hours;\r\n    }\r\n\r\n    function getWinner() public view returns (uint winnerId, string memory winnerName, uint winnerVotes) {\r\n        require(!electionActive || block.timestamp > votingEndTime, \"Election is still active\");\r\n        \r\n        uint maxVotes = 0;\r\n        uint winningId = 0;\r\n        \r\n        for (uint i = 1; i <= candidatesCount; i++) {\r\n            if (candidates[i].voteCount > maxVotes && candidates[i].isActive) {\r\n                maxVotes = candidates[i].voteCount;\r\n                winningId = i;\r\n            }\r\n        }\r\n        \r\n        if (winningId > 0) {\r\n            return (winningId, candidates[winningId].name, maxVotes);\r\n        }\r\n        \r\n        return (0, \"No winner\", 0);\r\n    }\r\n\r\n    // Emergency function to pause voting\r\n    function pauseElection() public onlyOwner {\r\n        electionActive = false;\r\n    }\r\n\r\n    function resumeElection() public onlyOwner {\r\n        electionActive = true;\r\n    }\r\n}",
  "sourcePath": "C:\\Users\\Mihir Ponkshe\\OneDrive\\Desktop\\e-voting_app\\contracts\\Election.sol",
  "compiler": {
    "name": "solc",
    "version": "0.8.21+commit.d9974bed.Emscripten.clang"
  },
  "schemaVersion": "3.4.16",
  "updatedAt": "2026-06-19T12:53:16.150Z",
  "networkType": "ethereum",
  "devdoc": {
    "kind": "dev",
    "methods": {},
    "version": 1
  },
  "userdoc": {
    "kind": "user",
    "methods": {},
    "version": 1
  }
}