{
  "contractName": "Election",
  "abi": [
    {
      "inputs": [],
      "stateMutability": "nonpayable",
      "type": "constructor"
    },
    {
      "anonymous": false,
      "inputs": [
        {
          "indexed": true,
          "internalType": "uint256",
          "name": "candidateId",
          "type": "uint256"
        },
        {
          "indexed": false,
          "internalType": "string",
          "name": "name",
          "type": "string"
        }
      ],
      "name": "CandidateAdded",
      "type": "event"
    },
    {
      "anonymous": false,
      "inputs": [
        {
          "indexed": true,
          "internalType": "uint256",
          "name": "candidateId",
          "type": "uint256"
        },
        {
          "indexed": false,
          "internalType": "bool",
          "name": "isActive",
          "type": "bool"
        }
      ],
      "name": "CandidateStatusChanged",
      "type": "event"
    },
    {
      "anonymous": false,
      "inputs": [
        {
          "indexed": false,
          "internalType": "uint256",
          "name": "endTime",
          "type": "uint256"
        }
      ],
      "name": "ElectionEnded",
      "type": "event"
    },
    {
      "anonymous": false,
      "inputs": [
        {
          "indexed": false,
          "internalType": "uint256",
          "name": "startTime",
          "type": "uint256"
        }
      ],
      "name": "ElectionStarted",
      "type": "event"
    },
    {
      "anonymous": false,
      "inputs": [
        {
          "indexed": true,
          "internalType": "address",
          "name": "voter",
          "type": "address"
        },
        {
          "indexed": true,
          "internalType": "uint256",
          "name": "candidateId",
          "type": "uint256"
        },
        {
          "indexed": false,
          "internalType": "uint256",
          "name": "timestamp",
          "type": "uint256"
        }
      ],
      "name": "Voted",
      "type": "event"
    },
    {
      "inputs": [
        {
          "internalType": "uint256",
          "name": "",
          "type": "uint256"
        }
      ],
      "name": "candidates",
      "outputs": [
        {
          "internalType": "uint256",
          "name": "id",
          "type": "uint256"
        },
        {
          "internalType": "string",
          "name": "name",
          "type": "string"
        },
        {
          "internalType": "uint256",
          "name": "voteCount",
          "type": "uint256"
        },
        {
          "internalType": "string",
          "name": "description",
          "type": "string"
        },
        {
          "internalType": "bool",
          "name": "isActive",
          "type": "bool"
        }
      ],
      "stateMutability": "view",
      "type": "function",
      "constant": true
    },
    {
      "inputs": [],
      "name": "candidatesCount",
      "outputs": [
        {
          "internalType": "uint256",
          "name": "",
          "type": "uint256"
        }
      ],
      "stateMutability": "view",
      "type": "function",
      "constant": true
    },
    {
      "inputs": [],
      "name": "electionActive",
      "outputs": [
        {
          "internalType": "bool",
          "name": "",
          "type": "bool"
        }
      ],
      "stateMutability": "view",
      "type": "function",
      "constant": true
    },
    {
      "inputs": [],
      "name": "electionDescription",
      "outputs": [
        {
          "internalType": "string",
          "name": "",
          "type": "string"
        }
      ],
      "stateMutability": "view",
      "type": "function",
      "constant": true
    },
    {
      "inputs": [],
      "name": "electionName",
      "outputs": [
        {
          "internalType": "string",
          "name": "",
          "type": "string"
        }
      ],
      "stateMutability": "view",
      "type": "function",
      "constant": true
    },
    {
      "inputs": [],
      "name": "owner",
      "outputs": [
        {
          "internalType": "address",
          "name": "",
          "type": "address"
        }
      ],
      "stateMutability": "view",
      "type": "function",
      "constant": true
    },
    {
      "inputs": [],
      "name": "totalVotes",
      "outputs": [
        {
          "internalType": "uint256",
          "name": "",
          "type": "uint256"
        }
      ],
      "stateMutability": "view",
      "type": "function",
      "constant": true
    },
    {
      "inputs": [
        {
          "internalType": "address",
          "name": "",
          "type": "address"
        }
      ],
      "name": "voters",
      "outputs": [
        {
          "internalType": "bool",
          "name": "hasVoted",
          "type": "bool"
        },
        {
          "internalType": "uint256",
          "name": "votedFor",
          "type": "uint256"
        },
        {
          "internalType": "uint256",
          "name": "timestamp",
          "type": "uint256"
        }
      ],
      "stateMutability": "view",
      "type": "function",
      "constant": true
    },
    {
      "inputs": [],
      "name": "votingEndTime",
      "outputs": [
        {
          "internalType": "uint256",
          "name": "",
          "type": "uint256"
        }
      ],
      "stateMutability": "view",
      "type": "function",
      "constant": true
    },
    {
      "inputs": [],
      "name": "votingStartTime",
      "outputs": [
        {
          "internalType": "uint256",
          "name": "",
          "type": "uint256"
        }
      ],
      "stateMutability": "view",
      "type": "function",
      "constant": true
    },
    {
      "inputs": [
        {
          "internalType": "string",
          "name": "_name",
          "type": "string"
        },
        {
          "internalType": "string",
          "name": "_description",
          "type": "string"
        }
      ],
      "name": "addCandidate",
      "outputs": [],
      "stateMutability": "nonpayable",
      "type": "function"
    },
    {
      "inputs": [
        {
          "internalType": "uint256",
          "name": "_candidateId",
          "type": "uint256"
        }
      ],
      "name": "toggleCandidateStatus",
      "outputs": [],
      "stateMutability": "nonpayable",
      "type": "function"
    },
    {
      "inputs": [
        {
          "internalType": "uint256",
          "name": "_candidateId",
          "type": "uint256"
        }
      ],
      "name": "vote",
      "outputs": [],
      "stateMutability": "nonpayable",
      "type": "function"
    },
    {
      "inputs": [
        {
          "internalType": "uint256",
          "name": "_candidateId",
          "type": "uint256"
        }
      ],
      "name": "getCandidate",
      "outputs": [
        {
          "internalType": "uint256",
          "name": "id",
          "type": "uint256"
        },
        {
          "internalType": "string",
          "name": "name",
          "type": "string"
        },
        {
          "internalType": "uint256",
          "name": "voteCount",
          "type": "uint256"
        },
        {
          "internalType": "string",
          "name": "description",
          "type": "string"
        },
        {
          "internalType": "bool",
          "name": "isActive",
          "type": "bool"
        }
      ],
      "stateMutability": "view",
      "type": "function",
      "constant": true
    },
    {
      "inputs": [],
      "name": "getAllCandidates",
      "outputs": [
        {
          "internalType": "uint256[]",
          "name": "ids",
          "type": "uint256[]"
        },
        {
          "internalType": "string[]",
          "name": "names",
          "type": "string[]"
        },
        {
          "internalType": "uint256[]",
          "name": "voteCounts",
          "type": "uint256[]"
        },
        {
          "internalType": "string[]",
          "name": "descriptions",
          "type": "string[]"
        },
        {
          "internalType": "bool[]",
          "name": "activeStatus",
          "type": "bool[]"
        }
      ],
      "stateMutability": "view",
      "type": "function",
      "constant": true
    },
    {
      "inputs": [],
      "name": "getElectionInfo",
      "outputs": [
        {
          "internalType": "string",
          "name": "name",
          "type": "string"
        },
        {
          "internalType": "string",
          "name": "description",
          "type": "string"
        },
        {
          "internalType": "uint256",
          "name": "startTime",
          "type": "uint256"
        },
        {
          "internalType": "uint256",
          "name": "endTime",
          "type": "uint256"
        },
        {
          "internalType": "bool",
          "name": "active",
          "type": "bool"
        },
        {
          "internalType": "uint256",
          "name": "totalVotesCast",
          "type": "uint256"
        }
      ],
      "stateMutability": "view",
      "type": "function",
      "constant": true
    },
    {
      "inputs": [],
      "name": "getRemainingTime",
      "outputs": [
        {
          "internalType": "uint256",
          "name": "",
          "type": "uint256"
        }
      ],
      "stateMutability": "view",
      "type": "function",
      "constant": true
    },
    {
      "inputs": [
        {
          "internalType": "address",
          "name": "_voter",
          "type": "address"
        }
      ],
      "name": "getVoterInfo",
      "outputs": [
        {
          "internalType": "bool",
          "name": "hasVoted",
          "type": "bool"
        },
        {
          "internalType": "uint256",
          "name": "votedFor",
          "type": "uint256"
        },
        {
          "internalType": "uint256",
          "name": "timestamp",
          "type": "uint256"
        }
      ],
      "stateMutability": "view",
      "type": "function",
      "constant": true
    },
    {
      "inputs": [],
      "name": "endElection",
      "outputs": [],
      "stateMutability": "nonpayable",
      "type": "function"
    },
    {
      "inputs": [
        {
          "internalType": "uint256",
          "name": "_additionalHours",
          "type": "uint256"
        }
      ],
      "name": "extendElection",
      "outputs": [],
      "stateMutability": "nonpayable",
      "type": "function"
    },
    {
      "inputs": [],
      "name": "getWinner",
      "outputs": [
        {
          "internalType": "uint256",
          "name": "winnerId",
          "type": "uint256"
        },
        {
          "internalType": "string",
          "name": "winnerName",
          "type": "string"
        },
        {
          "internalType": "uint256",
          "name": "winnerVotes",
          "type": "uint256"
        }
      ],
      "stateMutability": "view",
      "type": "function",
      "constant": true
    },
    {
      "inputs": [],
      "name": "pauseElection",
      "outputs": [],
      "stateMutability": "nonpayable",
      "type": "function"
    },
    {
      "inputs": [],
      "name": "resumeElection",
      "outputs": [],
      "stateMutability": "nonpayable",
      "type": "function"
    }
  ],
  "bytecode": "0x60806040523480156200001157600080fd5b50336000806101000a81548173ffffffffffffffffffffffffffffffffffffffff021916908373ffffffffffffffffffffffffffffffffffffffff1602179055506040518060400160405280601581526020017f47656e6572616c20456c656374696f6e2032303235000000000000000000000081525060019081620000989190620006e0565b506040518060600160405280602a815260200162003844602a913960029081620000c39190620006e0565b506001600560006101000a81548160ff021916908315150217905550426003819055506201518042620000f79190620007f6565b600481905550620001666040518060400160405280600d81526020017f416c696365204a6f686e736f6e000000000000000000000000000000000000008152506040518060600160405280602d815260200162003817602d91396200023e640100000000026401000000009004565b620001cf6040518060400160405280600981526020017f426f6220536d69746800000000000000000000000000000000000000000000008152506040518060600160405280603081526020016200386e603091396200023e640100000000026401000000009004565b620002386040518060400160405280600b81526020017f4361726f6c2044617669730000000000000000000000000000000000000000008152506040518060600160405280602c8152602001620037eb602c91396200023e640100000000026401000000009004565b62000ad3565b60008054906101000a900473ffffffffffffffffffffffffffffffffffffffff1673ffffffffffffffffffffffffffffffffffffffff163373ffffffffffffffffffffffffffffffffffffffff1614620002cf576040517f08c379a0000000000000000000000000000000000000000000000000000000008152600401620002c690620008b8565b60405180910390fd5b600082511162000316576040517f08c379a00000000000000000000000000000000000000000000000000000000081526004016200030d906200092a565b60405180910390fd5b60008151116200035d576040517f08c379a00000000000000000000000000000000000000000000000000000000081526004016200035490620009c2565b60405180910390fd5b600860008154809291906200037290620009e4565b91905055506040518060a0016040528060085481526020018381526020016000815260200182815260200160011515815250600760006008548152602001908152602001600020600082015181600001556020820151816001019081620003da9190620006e0565b50604082015181600201556060820151816003019081620003fc9190620006e0565b5060808201518160040160006101000a81548160ff0219169083151502179055509050506008547fe83b2a43e7e82d975c8a0a6d2f045153c869e111136a34d1889ab7b598e396a38360405162000454919062000aaf565b60405180910390a25050565b600081519050919050565b7f4e487b7100000000000000000000000000000000000000000000000000000000600052604160045260246000fd5b7f4e487b7100000000000000000000000000000000000000000000000000000000600052602260045260246000fd5b60006002820490506001821680620004e257607f821691505b602082108103620004f857620004f76200049a565b5b50919050565b60008190508160005260206000209050919050565b60006020601f8301049050919050565b60008160020a8302905092915050565b600060088302620005657fffffffffffffffffffffffffffffffffffffffffffffffffffffffffffffffff8262000523565b62000571868362000523565b95508019841693508086168417925050509392505050565b6000819050919050565b6000819050919050565b6000620005be620005b8620005b28462000589565b62000593565b62000589565b9050919050565b6000819050919050565b620005da836200059d565b620005f2620005e982620005c5565b84845462000533565b825550505050565b600090565b62000609620005fa565b62000616818484620005cf565b505050565b5b818110156200063e5762000632600082620005ff565b6001810190506200061c565b5050565b601f8211156200068d576200065781620004fe565b620006628462000513565b8101602085101562000672578190505b6200068a620006818562000513565b8301826200061b565b50505b505050565b60008160020a8304905092915050565b6000620006b56000198460080262000692565b1980831691505092915050565b6000620006d08383620006a2565b9150826002028217905092915050565b620006eb8262000460565b67ffffffffffffffff8111156200070757620007066200046b565b5b620007138254620004c9565b6200072082828562000642565b600060209050601f83116001811462000758576000841562000743578287015190505b6200074f8582620006c2565b865550620007bf565b601f1984166200076886620004fe565b60005b8281101562000792578489015182556001820191506020850194506020810190506200076b565b86831015620007b25784890151620007ae601f891682620006a2565b8355505b6001600288020188555050505b505050505050565b7f4e487b7100000000000000000000000000000000000000000000000000000000600052601160045260246000fd5b6000620008038262000589565b9150620008108362000589565b92508282019050808211156200082b576200082a620007c7565b5b92915050565b600082825260208201905092915050565b7f4f6e6c79206f776e65722063616e20706572666f726d2074686973206163746960008201527f6f6e000000000000000000000000000000000000000000000000000000000000602082015250565b6000620008a060228362000831565b9150620008ad8262000842565b604082019050919050565b60006020820190508181036000830152620008d38162000891565b9050919050565b7f43616e646964617465206e616d652063616e6e6f7420626520656d7074790000600082015250565b600062000912601e8362000831565b91506200091f82620008da565b602082019050919050565b60006020820190508181036000830152620009458162000903565b9050919050565b7f43616e646964617465206465736372697074696f6e2063616e6e6f742062652060008201527f656d707479000000000000000000000000000000000000000000000000000000602082015250565b6000620009aa60258362000831565b9150620009b7826200094c565b604082019050919050565b60006020820190508181036000830152620009dd816200099b565b9050919050565b6000620009f18262000589565b91507fffffffffffffffffffffffffffffffffffffffffffffffffffffffffffffffff820362000a265762000a25620007c7565b5b600182019050919050565b60005b8381101562000a5157808201518184015260208101905062000a34565b60008484015250505050565b6000601f19601f8301169050919050565b600062000a7b8262000460565b62000a87818562000831565b935062000a9981856020860162000a31565b62000aa48162000a5d565b840191505092915050565b6000602082019050818103600083015262000acb818462000a6e565b905092915050565b612d088062000ae36000396000f3fe608060405234801561001057600080fd5b506004361061016a576000357c0100000000000000000000000000000000000000000000000000000000900480637ed628bb116100e0578063a3ec138d11610099578063a3ec138d146103a0578063d256d78d146103d2578063e6eea09b146103ee578063e852a14b146103f8578063efb98bcf14610402578063f5c05c3c146104205761016a565b80637ed628bb146102d157806385e8e7a7146102ef57806386852dca1461030d5780638da5cb5b146103305780638e7ea5b21461034e5780639ed1f2551461036e5761016a565b80632d35a8a2116101325780632d35a8a2146102015780632e6997fe1461021f5780633477ee2e1461024157806335b8e8201461027557806349a2b603146102a957806359f78468146102c75761016a565b80630121b93f1461016f5780630d15fd771461018b5780631ea736e0146101a95780632019a608146101c757806326541b56146101e5575b600080fd5b61018960048036038101906101849190611c36565b61043c565b005b610193610785565b6040516101a09190611c72565b60405180910390f35b6101b161078b565b6040516101be9190611c72565b60405180910390f35b6101cf610791565b6040516101dc9190611c72565b60405180910390f35b6101ff60048036038101906101fa9190611dd3565b610797565b005b6102096109a8565b6040516102169190611c72565b60405180910390f35b6102276109ae565b604051610238959493929190612114565b60405180910390f35b61025b60048036038101906102569190611c36565b610dd7565b60405161026c9594939291906121e3565b60405180910390f35b61028f600480360381019061028a9190611c36565b610f2a565b6040516102a09594939291906121e3565b60405180910390f35b6102b1611126565b6040516102be9190612244565b60405180910390f35b6102cf6111b4565b005b6102d9611296565b6040516102e69190612266565b60405180910390f35b6102f76112a9565b6040516103049190612244565b60405180910390f35b610315611337565b60405161032796959493929190612281565b60405180910390f35b610338611489565b6040516103459190612331565b60405180910390f35b6103566114ad565b6040516103659392919061234c565b60405180910390f35b610388600480360381019061038391906123b6565b61169f565b604051610397939291906123e3565b60405180910390f35b6103ba60048036038101906103b591906123b6565b61173d565b6040516103c9939291906123e3565b60405180910390f35b6103ec60048036038101906103e79190611c36565b611774565b005b6103f661187a565b005b610400611925565b005b61040a6119d0565b6040516104179190611c72565b60405180910390f35b61043a60048036038101906104359190611c36565b6119f8565b005b600560009054906101000a900460ff1661048b576040517f08c379a000000000000000000000000000000000000000000000000000000000815260040161048290612466565b60405180910390fd5b6003544210156104d0576040517f08c379a00000000000000000000000000000000000000000000000000000000081526004016104c7906124d2565b60405180910390fd5b600454421115610515576040517f08c379a000000000000000000000000000000000000000000000000000000000815260040161050c9061253e565b60405180910390fd5b8060008111801561052857506008548111155b610567576040517f08c379a000000000000000000000000000000000000000000000000000000000815260040161055e906125aa565b60405180910390fd5b6007600082815260200190815260200160002060040160009054906101000a900460ff166105ca576040517f08c379a00000000000000000000000000000000000000000000000000000000081526004016105c190612616565b60405180910390fd5b600660003373ffffffffffffffffffffffffffffffffffffffff1673ffffffffffffffffffffffffffffffffffffffff16815260200190815260200160002060000160009054906101000a900460ff161561065a576040517f08c379a000000000000000000000000000000000000000000000000000000000815260040161065190612682565b60405180910390fd5b604051806060016040528060011515815260200183815260200142815250600660003373ffffffffffffffffffffffffffffffffffffffff1673ffffffffffffffffffffffffffffffffffffffff16815260200190815260200160002060008201518160000160006101000a81548160ff0219169083151502179055506020820151816001015560408201518160020155905050600760008381526020019081526020016000206002016000815480929190610715906126d1565b91905055506009600081548092919061072d906126d1565b9190505550813373ffffffffffffffffffffffffffffffffffffffff167fea66f58e474bc09f580000e81f31b334d171db387d0c6098ba47bd897741679b426040516107799190611c72565b60405180910390a35050565b60095481565b60045481565b60035481565b60008054906101000a900473ffffffffffffffffffffffffffffffffffffffff1673ffffffffffffffffffffffffffffffffffffffff163373ffffffffffffffffffffffffffffffffffffffff1614610825576040517f08c379a000000000000000000000000000000000000000000000000000000000815260040161081c9061278b565b60405180910390fd5b6000825111610869576040517f08c379a0000000000000000000000000000000000000000000000000000000008152600401610860906127f7565b60405180910390fd5b60008151116108ad576040517f08c379a00000000000000000000000000000000000000000000000000000000081526004016108a490612889565b60405180910390fd5b600860008154809291906108c0906126d1565b91905055506040518060a00160405280600854815260200183815260200160008152602001828152602001600115158152506007600060085481526020019081526020016000206000820151816000015560208201518160010190816109269190612abb565b506040820151816002015560608201518160030190816109469190612abb565b5060808201518160040160006101000a81548160ff0219169083151502179055509050506008547fe83b2a43e7e82d975c8a0a6d2f045153c869e111136a34d1889ab7b598e396a38360405161099c9190612244565b60405180910390a25050565b60085481565b606080606080606060085467ffffffffffffffff8111156109d2576109d1611ca8565b5b604051908082528060200260200182016040528015610a005781602001602082028036833780820191505090505b50945060085467ffffffffffffffff811115610a1f57610a1e611ca8565b5b604051908082528060200260200182016040528015610a5257816020015b6060815260200190600190039081610a3d5790505b50935060085467ffffffffffffffff811115610a7157610a70611ca8565b5b604051908082528060200260200182016040528015610a9f5781602001602082028036833780820191505090505b50925060085467ffffffffffffffff811115610abe57610abd611ca8565b5b604051908082528060200260200182016040528015610af157816020015b6060815260200190600190039081610adc5790505b50915060085467ffffffffffffffff811115610b1057610b0f611ca8565b5b604051908082528060200260200182016040528015610b3e5781602001602082028036833780820191505090505b5090506000600190505b6008548111610dcf57600760008281526020019081526020016000206000015486600183610b769190612b8d565b81518110610b8757610b86612bc1565b5b602002602001018181525050600760008281526020019081526020016000206001018054610bb4906128d8565b80601f0160208091040260200160405190810160405280929190818152602001828054610be0906128d8565b8015610c2d5780601f10610c0257610100808354040283529160200191610c2d565b820191906000526020600020905b815481529060010190602001808311610c1057829003601f168201915b505050505085600183610c409190612b8d565b81518110610c5157610c50612bc1565b5b6020026020010181905250600760008281526020019081526020016000206002015484600183610c819190612b8d565b81518110610c9257610c91612bc1565b5b602002602001018181525050600760008281526020019081526020016000206003018054610cbf906128d8565b80601f0160208091040260200160405190810160405280929190818152602001828054610ceb906128d8565b8015610d385780601f10610d0d57610100808354040283529160200191610d38565b820191906000526020600020905b815481529060010190602001808311610d1b57829003601f168201915b505050505083600183610d4b9190612b8d565b81518110610d5c57610d5b612bc1565b5b60200260200101819052506007600082815260200190815260200160002060040160009054906101000a900460ff1682600183610d999190612b8d565b81518110610daa57610da9612bc1565b5b6020026020010190151590811515815250508080610dc7906126d1565b915050610b48565b509091929394565b6007602052806000526040600020600091509050806000015490806001018054610e00906128d8565b80601f0160208091040260200160405190810160405280929190818152602001828054610e2c906128d8565b8015610e795780601f10610e4e57610100808354040283529160200191610e79565b820191906000526020600020905b815481529060010190602001808311610e5c57829003601f168201915b505050505090806002015490806003018054610e94906128d8565b80601f0160208091040260200160405190810160405280929190818152602001828054610ec0906128d8565b8015610f0d5780601f10610ee257610100808354040283529160200191610f0d565b820191906000526020600020905b815481529060010190602001808311610ef057829003601f168201915b5050505050908060040160009054906101000a900460ff16905085565b600060606000606060008086118015610f4557506008548611155b610f84576040517f08c379a0000000000000000000000000000000000000000000000000000000008152600401610f7b906125aa565b60405180910390fd5b6000600760008881526020019081526020016000206040518060a001604052908160008201548152602001600182018054610fbe906128d8565b80601f0160208091040260200160405190810160405280929190818152602001828054610fea906128d8565b80156110375780601f1061100c57610100808354040283529160200191611037565b820191906000526020600020905b81548152906001019060200180831161101a57829003601f168201915b505050505081526020016002820154815260200160038201805461105a906128d8565b80601f0160208091040260200160405190810160405280929190818152602001828054611086906128d8565b80156110d35780601f106110a8576101008083540402835291602001916110d3565b820191906000526020600020905b8154815290600101906020018083116110b657829003601f168201915b505050505081526020016004820160009054906101000a900460ff161515151581525050905080600001518160200151826040015183606001518460800151955095509550955095505091939590929450565b60028054611133906128d8565b80601f016020809104026020016040519081016040528092919081815260200182805461115f906128d8565b80156111ac5780601f10611181576101008083540402835291602001916111ac565b820191906000526020600020905b81548152906001019060200180831161118f57829003601f168201915b505050505081565b60008054906101000a900473ffffffffffffffffffffffffffffffffffffffff1673ffffffffffffffffffffffffffffffffffffffff163373ffffffffffffffffffffffffffffffffffffffff1614611242576040517f08c379a00000000000000000000000000000000000000000000000000000000081526004016112399061278b565b60405180910390fd5b6000600560006101000a81548160ff0219169083151502179055507f562cd572b2ba3b666cd989fc4ca98419ec81e75f04528df9d9d76fdb7807ee714260405161128c9190611c72565b60405180910390a1565b600560009054906101000a900460ff1681565b600180546112b6906128d8565b80601f01602080910402602001604051908101604052809291908181526020018280546112e2906128d8565b801561132f5780601f106113045761010080835404028352916020019161132f565b820191906000526020600020905b81548152906001019060200180831161131257829003601f168201915b505050505081565b60608060008060008060016002600354600454600560009054906101000a900460ff16600954858054611369906128d8565b80601f0160208091040260200160405190810160405280929190818152602001828054611395906128d8565b80156113e25780601f106113b7576101008083540402835291602001916113e2565b820191906000526020600020905b8154815290600101906020018083116113c557829003601f168201915b505050505095508480546113f5906128d8565b80601f0160208091040260200160405190810160405280929190818152602001828054611421906128d8565b801561146e5780601f106114435761010080835404028352916020019161146e565b820191906000526020600020905b81548152906001019060200180831161145157829003601f168201915b50505050509450955095509550955095509550909192939495565b60008054906101000a900473ffffffffffffffffffffffffffffffffffffffff1681565b600060606000600560009054906101000a900460ff1615806114d0575060045442115b61150f576040517f08c379a000000000000000000000000000000000000000000000000000000000815260040161150690612c3c565b60405180910390fd5b6000806000600190505b600854811161159c5782600760008381526020019081526020016000206002015411801561156757506007600082815260200190815260200160002060040160009054906101000a900460ff165b1561158957600760008281526020019081526020016000206002015492508091505b8080611594906126d1565b915050611519565b506000811115611657578060076000838152602001908152602001600020600101838180546115ca906128d8565b80601f01602080910402602001604051908101604052809291908181526020018280546115f6906128d8565b80156116435780601f1061161857610100808354040283529160200191611643565b820191906000526020600020905b81548152906001019060200180831161162657829003601f168201915b50505050509150945094509450505061169a565b6000806040518060400160405280600981526020017f4e6f2077696e6e657200000000000000000000000000000000000000000000008152509094509450945050505b909192565b600080600080600660008673ffffffffffffffffffffffffffffffffffffffff1673ffffffffffffffffffffffffffffffffffffffff1681526020019081526020016000206040518060600160405290816000820160009054906101000a900460ff16151515158152602001600182015481526020016002820154815250509050806000015181602001518260400151935093509350509193909250565b60066020528060005260406000206000915090508060000160009054906101000a900460ff16908060010154908060020154905083565b60008054906101000a900473ffffffffffffffffffffffffffffffffffffffff1673ffffffffffffffffffffffffffffffffffffffff163373ffffffffffffffffffffffffffffffffffffffff1614611802576040517f08c379a00000000000000000000000000000000000000000000000000000000081526004016117f99061278b565b60405180910390fd5b600560009054906101000a900460ff16611851576040517f08c379a000000000000000000000000000000000000000000000000000000000815260040161184890612466565b60405180910390fd5b610e108161185f9190612c5c565b600460008282546118709190612c9e565b9250508190555050565b60008054906101000a900473ffffffffffffffffffffffffffffffffffffffff1673ffffffffffffffffffffffffffffffffffffffff163373ffffffffffffffffffffffffffffffffffffffff1614611908576040517f08c379a00000000000000000000000000000000000000000000000000000000081526004016118ff9061278b565b60405180910390fd5b6000600560006101000a81548160ff021916908315150217905550565b60008054906101000a900473ffffffffffffffffffffffffffffffffffffffff1673ffffffffffffffffffffffffffffffffffffffff163373ffffffffffffffffffffffffffffffffffffffff16146119b3576040517f08c379a00000000000000000000000000000000000000000000000000000000081526004016119aa9061278b565b60405180910390fd5b6001600560006101000a81548160ff021916908315150217905550565b600060045442106119e457600090506119f5565b426004546119f29190612b8d565b90505b90565b60008054906101000a900473ffffffffffffffffffffffffffffffffffffffff1673ffffffffffffffffffffffffffffffffffffffff163373ffffffffffffffffffffffffffffffffffffffff1614611a86576040517f08c379a0000000000000000000000000000000000000000000000000000000008152600401611a7d9061278b565b60405180910390fd5b80600081118015611a9957506008548111155b611ad8576040517f08c379a0000000000000000000000000000000000000000000000000000000008152600401611acf906125aa565b60405180910390fd5b6007600082815260200190815260200160002060040160009054906101000a900460ff16611b3b576040517f08c379a0000000000000000000000000000000000000000000000000000000008152600401611b3290612616565b60405180910390fd5b6007600083815260200190815260200160002060040160009054906101000a900460ff16156007600084815260200190815260200160002060040160006101000a81548160ff021916908315150217905550817f07a9fd7fc1368910c1b62e58319c10b4ba034e9e4d58aa2ef36e9283fc2c5f976007600085815260200190815260200160002060040160009054906101000a900460ff16604051611be09190612266565b60405180910390a25050565b6000604051905090565b600080fd5b600080fd5b6000819050919050565b611c1381611c00565b8114611c1e57600080fd5b50565b600081359050611c3081611c0a565b92915050565b600060208284031215611c4c57611c4b611bf6565b5b6000611c5a84828501611c21565b91505092915050565b611c6c81611c00565b82525050565b6000602082019050611c876000830184611c63565b92915050565b600080fd5b600080fd5b6000601f19601f8301169050919050565b7f4e487b7100000000000000000000000000000000000000000000000000000000600052604160045260246000fd5b611ce082611c97565b810181811067ffffffffffffffff82111715611cff57611cfe611ca8565b5b80604052505050565b6000611d12611bec565b9050611d1e8282611cd7565b919050565b600067ffffffffffffffff821115611d3e57611d3d611ca8565b5b611d4782611c97565b9050602081019050919050565b82818337600083830152505050565b6000611d76611d7184611d23565b611d08565b905082815260208101848484011115611d9257611d91611c92565b5b611d9d848285611d54565b509392505050565b600082601f830112611dba57611db9611c8d565b5b8135611dca848260208601611d63565b91505092915050565b60008060408385031215611dea57611de9611bf6565b5b600083013567ffffffffffffffff811115611e0857611e07611bfb565b5b611e1485828601611da5565b925050602083013567ffffffffffffffff811115611e3557611e34611bfb565b5b611e4185828601611da5565b9150509250929050565b600081519050919050565b600082825260208201905092915050565b6000819050602082019050919050565b611e8081611c00565b82525050565b6000611e928383611e77565b60208301905092915050565b6000602082019050919050565b6000611eb682611e4b565b611ec08185611e56565b9350611ecb83611e67565b8060005b83811015611efc578151611ee38882611e86565b9750611eee83611e9e565b925050600181019050611ecf565b5085935050505092915050565b600081519050919050565b600082825260208201905092915050565b6000819050602082019050919050565b600081519050919050565b600082825260208201905092915050565b60005b83811015611f6f578082015181840152602081019050611f54565b60008484015250505050565b6000611f8682611f35565b611f908185611f40565b9350611fa0818560208601611f51565b611fa981611c97565b840191505092915050565b6000611fc08383611f7b565b905092915050565b6000602082019050919050565b6000611fe082611f09565b611fea8185611f14565b935083602082028501611ffc85611f25565b8060005b8581101561203857848403895281516120198582611fb4565b945061202483611fc8565b925060208a01995050600181019050612000565b50829750879550505050505092915050565b600081519050919050565b600082825260208201905092915050565b6000819050602082019050919050565b60008115159050919050565b61208b81612076565b82525050565b600061209d8383612082565b60208301905092915050565b6000602082019050919050565b60006120c18261204a565b6120cb8185612055565b93506120d683612066565b8060005b838110156121075781516120ee8882612091565b97506120f9836120a9565b9250506001810190506120da565b5085935050505092915050565b600060a082019050818103600083015261212e8188611eab565b905081810360208301526121428187611fd5565b905081810360408301526121568186611eab565b9050818103606083015261216a8185611fd5565b9050818103608083015261217e81846120b6565b90509695505050505050565b600082825260208201905092915050565b60006121a682611f35565b6121b0818561218a565b93506121c0818560208601611f51565b6121c981611c97565b840191505092915050565b6121dd81612076565b82525050565b600060a0820190506121f86000830188611c63565b818103602083015261220a818761219b565b90506122196040830186611c63565b818103606083015261222b818561219b565b905061223a60808301846121d4565b9695505050505050565b6000602082019050818103600083015261225e818461219b565b905092915050565b600060208201905061227b60008301846121d4565b92915050565b600060c082019050818103600083015261229b818961219b565b905081810360208301526122af818861219b565b90506122be6040830187611c63565b6122cb6060830186611c63565b6122d860808301856121d4565b6122e560a0830184611c63565b979650505050505050565b600073ffffffffffffffffffffffffffffffffffffffff82169050919050565b600061231b826122f0565b9050919050565b61232b81612310565b82525050565b60006020820190506123466000830184612322565b92915050565b60006060820190506123616000830186611c63565b8181036020830152612373818561219b565b90506123826040830184611c63565b949350505050565b61239381612310565b811461239e57600080fd5b50565b6000813590506123b08161238a565b92915050565b6000602082840312156123cc576123cb611bf6565b5b60006123da848285016123a1565b91505092915050565b60006060820190506123f860008301866121d4565b6124056020830185611c63565b6124126040830184611c63565b949350505050565b7f456c656374696f6e206973206e6f742061637469766500000000000000000000600082015250565b600061245060168361218a565b915061245b8261241a565b602082019050919050565b6000602082019050818103600083015261247f81612443565b9050919050565b7f566f74696e6720686173206e6f74207374617274656420796574000000000000600082015250565b60006124bc601a8361218a565b91506124c782612486565b602082019050919050565b600060208201905081810360008301526124eb816124af565b9050919050565b7f566f74696e672068617320656e64656400000000000000000000000000000000600082015250565b600061252860108361218a565b9150612533826124f2565b602082019050919050565b600060208201905081810360008301526125578161251b565b9050919050565b7f496e76616c69642063616e646964617465206964000000000000000000000000600082015250565b600061259460148361218a565b915061259f8261255e565b602082019050919050565b600060208201905081810360008301526125c381612587565b9050919050565b7f43616e646964617465206973206e6f7420616374697665000000000000000000600082015250565b600061260060178361218a565b915061260b826125ca565b602082019050919050565b6000602082019050818103600083015261262f816125f3565b9050919050565b7f596f75206861766520616c726561647920766f74656400000000000000000000600082015250565b600061266c60168361218a565b915061267782612636565b602082019050919050565b6000602082019050818103600083015261269b8161265f565b9050919050565b7f4e487b7100000000000000000000000000000000000000000000000000000000600052601160045260246000fd5b60006126dc82611c00565b91507fffffffffffffffffffffffffffffffffffffffffffffffffffffffffffffffff820361270e5761270d6126a2565b5b600182019050919050565b7f4f6e6c79206f776e65722063616e20706572666f726d2074686973206163746960008201527f6f6e000000000000000000000000000000000000000000000000000000000000602082015250565b600061277560228361218a565b915061278082612719565b604082019050919050565b600060208201905081810360008301526127a481612768565b9050919050565b7f43616e646964617465206e616d652063616e6e6f7420626520656d7074790000600082015250565b60006127e1601e8361218a565b91506127ec826127ab565b602082019050919050565b60006020820190508181036000830152612810816127d4565b9050919050565b7f43616e646964617465206465736372697074696f6e2063616e6e6f742062652060008201527f656d707479000000000000000000000000000000000000000000000000000000602082015250565b600061287360258361218a565b915061287e82612817565b604082019050919050565b600060208201905081810360008301526128a281612866565b9050919050565b7f4e487b7100000000000000000000000000000000000000000000000000000000600052602260045260246000fd5b600060028204905060018216806128f057607f821691505b602082108103612903576129026128a9565b5b50919050565b60008190508160005260206000209050919050565b60006020601f8301049050919050565b60008160020a8302905092915050565b60006008830261296e7fffffffffffffffffffffffffffffffffffffffffffffffffffffffffffffffff8261292e565b612978868361292e565b95508019841693508086168417925050509392505050565b6000819050919050565b60006129b56129b06129ab84611c00565b612990565b611c00565b9050919050565b6000819050919050565b6129cf8361299a565b6129e36129db826129bc565b84845461293e565b825550505050565b600090565b6129f86129eb565b612a038184846129c6565b505050565b5b81811015612a2757612a1c6000826129f0565b600181019050612a09565b5050565b601f821115612a6c57612a3d81612909565b612a468461291e565b81016020851015612a55578190505b612a69612a618561291e565b830182612a08565b50505b505050565b60008160020a8304905092915050565b6000612a9260001984600802612a71565b1980831691505092915050565b6000612aab8383612a81565b9150826002028217905092915050565b612ac482611f35565b67ffffffffffffffff811115612add57612adc611ca8565b5b612ae782546128d8565b612af2828285612a2b565b600060209050601f831160018114612b255760008415612b13578287015190505b612b1d8582612a9f565b865550612b85565b601f198416612b3386612909565b60005b82811015612b5b57848901518255600182019150602085019450602081019050612b36565b86831015612b785784890151612b74601f891682612a81565b8355505b6001600288020188555050505b505050505050565b6000612b9882611c00565b9150612ba383611c00565b9250828203905081811115612bbb57612bba6126a2565b5b92915050565b7f4e487b7100000000000000000000000000000000000000000000000000000000600052603260045260246000fd5b7f456c656374696f6e206973207374696c6c206163746976650000000000000000600082015250565b6000612c2660188361218a565b9150612c3182612bf0565b602082019050919050565b60006020820190508181036000830152612c5581612c19565b9050919050565b6000612c6782611c00565b9150612c7283611c00565b9250828202612c8081611c00565b91508282048414831517612c9757612c966126a2565b5b5092915050565b6000612ca982611c00565b9150612cb483611c00565b9250828201905080821115612ccc57612ccb6126a2565b5b9291505056fea26469706673582212205c5202840e8aae18d914924d66396b4c916a86eab67a49de484e0cc560f848d264736f6c63430008150033436f6d6d756e697479206f7267616e697a65722070726f6d6f74696e6720736f6369616c206a757374696365457870657269656e636564206c656164657220666f6375736564206f6e2065636f6e6f6d69632067726f77746844656d6f63726174696320766f74696e6720666f72206c65616465727368697020706f736974696f6e73456e7669726f6e6d656e74616c206164766f6361746520776974682070726f677265737369766520706f6c6963696573",
  "immutableReferences": {},
  "source": "// SPDX-License-Identifier: MIT\r\npragma solidity >=0.5.0 <0.9.0;\r\n\r\ncontract Election {\r\n    struct Candidate {\r\n        uint id;\r\n        string name;\r\n        uint voteCount;\r\n        string description;\r\n        bool isActive;\r\n    }\r\n\r\n    struct Voter {\r\n        bool hasVoted;\r\n        uint votedFor;\r\n        uint timestamp;\r\n    }\r\n\r\n    address public owner;\r\n    string public electionName;\r\n    string public electionDescription;\r\n    uint public votingStartTime;\r\n    uint public votingEndTime;\r\n    bool public electionActive;\r\n    \r\n    mapping(address => Voter) public voters;\r\n    mapping(uint => Candidate) public candidates;\r\n    uint public candidatesCount;\r\n    uint public totalVotes;\r\n\r\n    // Events\r\n    event Voted(address indexed voter, uint indexed candidateId, uint timestamp);\r\n    event CandidateAdded(uint indexed candidateId, string name);\r\n    event ElectionStarted(uint startTime);\r\n    event ElectionEnded(uint endTime);\r\n    event CandidateStatusChanged(uint indexed candidateId, bool isActive);\r\n\r\n    // Modifiers\r\n    modifier onlyOwner() {\r\n        require(msg.sender == owner, \"Only owner can perform this action\");\r\n        _;\r\n    }\r\n\r\n    modifier electionIsActive() {\r\n        require(electionActive, \"Election is not active\");\r\n        require(block.timestamp >= votingStartTime, \"Voting has not started yet\");\r\n        require(block.timestamp <= votingEndTime, \"Voting has ended\");\r\n        _;\r\n    }\r\n\r\n    modifier validCandidate(uint _candidateId) {\r\n        require(_candidateId > 0 && _candidateId <= candidatesCount, \"Invalid candidate id\");\r\n        require(candidates[_candidateId].isActive, \"Candidate is not active\");\r\n        _;\r\n    }\r\n\r\n    constructor() {\r\n        owner = msg.sender;\r\n        electionName = \"General Election 2025\";\r\n        electionDescription = \"Democratic voting for leadership positions\";\r\n        electionActive = true;\r\n        \r\n        // Set voting period (24 hours from deployment)\r\n        votingStartTime = block.timestamp;\r\n        votingEndTime = block.timestamp + 24 hours;\r\n\r\n        // Initialize with default candidates\r\n        addCandidate(\"Alice Johnson\", \"Experienced leader focused on economic growth\");\r\n        addCandidate(\"Bob Smith\", \"Environmental advocate with progressive policies\");\r\n        addCandidate(\"Carol Davis\", \"Community organizer promoting social justice\");\r\n    }\r\n\r\n    function addCandidate(string memory _name, string memory _description) public onlyOwner {\r\n        require(bytes(_name).length > 0, \"Candidate name cannot be empty\");\r\n        require(bytes(_description).length > 0, \"Candidate description cannot be empty\");\r\n        \r\n        candidatesCount++;\r\n        candidates[candidatesCount] = Candidate(\r\n            candidatesCount,\r\n            _name,\r\n            0,\r\n            _description,\r\n            true\r\n        );\r\n        \r\n        emit CandidateAdded(candidatesCount, _name);\r\n    }\r\n\r\n    function toggleCandidateStatus(uint _candidateId) public onlyOwner validCandidate(_candidateId) {\r\n        candidates[_candidateId].isActive = !candidates[_candidateId].isActive;\r\n        emit CandidateStatusChanged(_candidateId, candidates[_candidateId].isActive);\r\n    }\r\n\r\n    function vote(uint _candidateId) public electionIsActive validCandidate(_candidateId) {\r\n        require(!voters[msg.sender].hasVoted, \"You have already voted\");\r\n        \r\n        // Record the vote\r\n        voters[msg.sender] = Voter({\r\n            hasVoted: true,\r\n            votedFor: _candidateId,\r\n            timestamp: block.timestamp\r\n        });\r\n\r\n        // Update candidate vote count\r\n        candidates[_candidateId].voteCount++;\r\n        totalVotes++;\r\n\r\n        emit Voted(msg.sender, _candidateId, block.timestamp);\r\n    }\r\n\r\n    function getCandidate(uint _candidateId) public view returns (\r\n        uint id,\r\n        string memory name,\r\n        uint voteCount,\r\n        string memory description,\r\n        bool isActive\r\n    ) {\r\n        require(_candidateId > 0 && _candidateId <= candidatesCount, \"Invalid candidate id\");\r\n        Candidate memory candidate = candidates[_candidateId];\r\n        return (\r\n            candidate.id,\r\n            candidate.name,\r\n            candidate.voteCount,\r\n            candidate.description,\r\n            candidate.isActive\r\n        );\r\n    }\r\n\r\n    function getAllCandidates() public view returns (\r\n        uint[] memory ids,\r\n        string[] memory names,\r\n        uint[] memory voteCounts,\r\n        string[] memory descriptions,\r\n        bool[] memory activeStatus\r\n    ) {\r\n        ids = new uint[](candidatesCount);\r\n        names = new string[](candidatesCount);\r\n        voteCounts = new uint[](candidatesCount);\r\n        descriptions = new string[](candidatesCount);\r\n        activeStatus = new bool[](candidatesCount);\r\n\r\n        for (uint i = 1; i <= candidatesCount; i++) {\r\n            ids[i-1] = candidates[i].id;\r\n            names[i-1] = candidates[i].name;\r\n            voteCounts[i-1] = candidates[i].voteCount;\r\n            descriptions[i-1] = candidates[i].description;\r\n            activeStatus[i-1] = candidates[i].isActive;\r\n        }\r\n    }\r\n\r\n    function getElectionInfo() public view returns (\r\n        string memory name,\r\n        string memory description,\r\n        uint startTime,\r\n        uint endTime,\r\n        bool active,\r\n        uint totalVotesCast\r\n    ) {\r\n        return (\r\n            electionName,\r\n            electionDescription,\r\n            votingStartTime,\r\n            votingEndTime,\r\n            electionActive,\r\n            totalVotes\r\n        );\r\n    }\r\n\r\n    function getRemainingTime() public view returns (uint) {\r\n        if (block.timestamp >= votingEndTime) {\r\n            return 0;\r\n        }\r\n        return votingEndTime - block.timestamp;\r\n    }\r\n\r\n    function getVoterInfo(address _voter) public view returns (\r\n        bool hasVoted,\r\n        uint votedFor,\r\n        uint timestamp\r\n    ) {\r\n        Voter memory voter = voters[_voter];\r\n        return (voter.hasVoted, voter.votedFor, voter.timestamp);\r\n    }\r\n\r\n    function endElection() public onlyOwner {\r\n        electionActive = false;\r\n        emit ElectionEnded(block.timestamp);\r\n    }\r\n\r\n    function extendElection(uint _additionalHours) public onlyOwner {\r\n        require(electionActive, \"Election is not active\");\r\n        votingEndTime += _additionalHours * 1 hours;\r\n    }\r\n\r\n    function getWinner() public view returns (uint winnerId, string memory winnerName, uint winnerVotes) {\r\n        require(!electionActive || block.timestamp > votingEndTime, \"Election is still active\");\r\n        \r\n        uint maxVotes = 0;\r\n        uint winningId = 0;\r\n        \r\n        for (uint i = 1; i <= candidatesCount; i++) {\r\n            if (candidates[i].voteCount > maxVotes && candidates[i].isActive) {\r\n                maxVotes = candidates[i].voteCount;\r\n                winningId = i;\r\n            }\r\n        }\r\n        \r\n        if (winningId > 0) {\r\n            return (winningId, candidates[winningId].name, maxVotes);\r\n        }\r\n        \r\n        return (0, \"No winner\", 0);\r\n    }\r\n\r\n    // Emergency function to pause voting\r\n    function pauseElection() public onlyOwner {\r\n        electionActive = false;\r\n    }\r\n\r\n    function resumeElection() public onlyOwner {\r\n        electionActive = true;\r\n    }\r\n}",
  "sourcePath": "C:\\Users\\Mihir Ponkshe\\OneDrive\\Desktop\\e-voting_app\\contracts\\Election.sol",
  "compiler": {
    "name": "solc",
    "version": "0.8.21+commit.d9974bed.Emscripten.clang"
  },
  "schemaVersion": "3.4.16",
  "updatedAt": "2026-06-19T10:28:10.196Z",
  "networkType": "ethereum",
  "devdoc": {
    "kind": "dev",
    "methods": {},
    "version": 1
  },
  "userdoc": {
    "kind": "user",
    "methods": {},
    "version": 1
  }
}